{
  "_format": "hh-sol-artifact-1",
  "contractName": "DRate",
  "sourceName": "src/backend/contracts/DRate.sol",
  "abi": [
    {
      "inputs": [],
      "stateMutability": "nonpayable",
      "type": "constructor"
    },
    {
      "anonymous": false,
      "inputs": [
        {
          "indexed": false,
          "internalType": "uint256",
          "name": "eventID",
          "type": "uint256"
        },
        {
          "indexed": false,
          "internalType": "enum DRate.EventType",
          "name": "eventType",
          "type": "uint8"
        },
        {
          "indexed": false,
          "internalType": "string",
          "name": "eventName",
          "type": "string"
        },
        {
          "indexed": false,
          "internalType": "string",
          "name": "eventDescription",
          "type": "string"
        },
        {
          "indexed": false,
          "internalType": "enum DRate.Language",
          "name": "language",
          "type": "uint8"
        },
        {
          "indexed": false,
          "internalType": "enum DRate.Tag",
          "name": "tags",
          "type": "uint8"
        },
        {
          "indexed": false,
          "internalType": "address",
          "name": "author",
          "type": "address"
        },
        {
          "indexed": false,
          "internalType": "uint256",
          "name": "rating",
          "type": "uint256"
        },
        {
          "indexed": false,
          "internalType": "uint256",
          "name": "numberOfRatings",
          "type": "uint256"
        },
        {
          "indexed": false,
          "internalType": "string",
          "name": "posterURL",
          "type": "string"
        }
      ],
      "name": "EventAdded",
      "type": "event"
    },
    {
      "inputs": [
        {
          "internalType": "enum DRate.EventType",
          "name": "_eventType",
          "type": "uint8"
        },
        {
          "internalType": "string",
          "name": "_eventName",
          "type": "string"
        },
        {
          "internalType": "string",
          "name": "_eventDescription",
          "type": "string"
        },
        {
          "internalType": "enum DRate.Language",
          "name": "_language",
          "type": "uint8"
        },
        {
          "internalType": "enum DRate.Tag",
          "name": "_tags",
          "type": "uint8"
        },
        {
          "internalType": "string",
          "name": "_posterURL",
          "type": "string"
        }
      ],
      "name": "addEvent",
      "outputs": [],
      "stateMutability": "payable",
      "type": "function"
    },
    {
      "inputs": [
        {
          "internalType": "uint256",
          "name": "",
          "type": "uint256"
        }
      ],
      "name": "allEvents",
      "outputs": [
        {
          "internalType": "uint256",
          "name": "eventID",
          "type": "uint256"
        },
        {
          "internalType": "enum DRate.EventType",
          "name": "eventType",
          "type": "uint8"
        },
        {
          "internalType": "string",
          "name": "eventName",
          "type": "string"
        },
        {
          "internalType": "string",
          "name": "eventDescription",
          "type": "string"
        },
        {
          "internalType": "enum DRate.Language",
          "name": "language",
          "type": "uint8"
        },
        {
          "internalType": "enum DRate.Tag",
          "name": "tags",
          "type": "uint8"
        },
        {
          "internalType": "address",
          "name": "author",
          "type": "address"
        },
        {
          "internalType": "uint256",
          "name": "rating",
          "type": "uint256"
        },
        {
          "internalType": "uint256",
          "name": "numberOfRatings",
          "type": "uint256"
        },
        {
          "internalType": "string",
          "name": "posterURL",
          "type": "string"
        }
      ],
      "stateMutability": "view",
      "type": "function"
    },
    {
      "inputs": [],
      "name": "eventID",
      "outputs": [
        {
          "internalType": "uint256",
          "name": "",
          "type": "uint256"
        }
      ],
      "stateMutability": "view",
      "type": "function"
    },
    {
      "inputs": [
        {
          "internalType": "string",
          "name": "_eventName",
          "type": "string"
        }
      ],
      "name": "getMovieByName",
      "outputs": [
        {
          "internalType": "uint256",
          "name": "",
          "type": "uint256"
        },
        {
          "internalType": "enum DRate.EventType",
          "name": "",
          "type": "uint8"
        },
        {
          "internalType": "string",
          "name": "",
          "type": "string"
        },
        {
          "internalType": "string",
          "name": "",
          "type": "string"
        },
        {
          "internalType": "enum DRate.Language",
          "name": "",
          "type": "uint8"
        },
        {
          "internalType": "enum DRate.Tag",
          "name": "",
          "type": "uint8"
        },
        {
          "internalType": "uint256",
          "name": "",
          "type": "uint256"
        },
        {
          "internalType": "uint256",
          "name": "",
          "type": "uint256"
        },
        {
          "internalType": "string",
          "name": "",
          "type": "string"
        }
      ],
      "stateMutability": "view",
      "type": "function"
    }
  ],
  "bytecode": "0x60806040526000805534801561001457600080fd5b50611459806100246000396000f3fe60806040526004361061003f5760003560e01c80633bec5cff146100445780639716bff51461008a5780639beb5e31146100b5578063ea92b0c0146100fa575b600080fd5b34801561005057600080fd5b5061006b60048036038101906100669190610cdd565b610116565b6040516100819a99989796959493929190610f43565b60405180910390f35b34801561009657600080fd5b5061009f610349565b6040516100ac9190610e77565b60405180910390f35b3480156100c157600080fd5b506100dc60048036038101906100d79190610c9c565b61034f565b6040516100f199989796959493929190610ff4565b60405180910390f35b610114600480360381019061010f9190610bcb565b610706565b005b60016020528060005260406000206000915090508060000154908060010160009054906101000a900460ff169080600201805461015290611227565b80601f016020809104026020016040519081016040528092919081815260200182805461017e90611227565b80156101cb5780601f106101a0576101008083540402835291602001916101cb565b820191906000526020600020905b8154815290600101906020018083116101ae57829003601f168201915b5050505050908060030180546101e090611227565b80601f016020809104026020016040519081016040528092919081815260200182805461020c90611227565b80156102595780601f1061022e57610100808354040283529160200191610259565b820191906000526020600020905b81548152906001019060200180831161023c57829003601f168201915b5050505050908060040160009054906101000a900460ff16908060040160019054906101000a900460ff16908060040160029054906101000a900473ffffffffffffffffffffffffffffffffffffffff16908060050154908060060154908060070180546102c690611227565b80601f01602080910402602001604051908101604052809291908181526020018280546102f290611227565b801561033f5780601f106103145761010080835404028352916020019161033f565b820191906000526020600020905b81548152906001019060200180831161032257829003601f168201915b505050505090508a565b60005481565b600080606080600080600080606060008a511161036b57600080fd5b60005b6000548110156106a3578a6040516020016103899190610e49565b60405160208183030381529060405280519060200120600160008381526020019081526020016000206002016040516020016103c59190610e60565b6040516020818303038152906040528051906020012014156106905760016000828152602001908152602001600020600001546001600083815260200190815260200160002060010160009054906101000a900460ff1660016000848152602001908152602001600020600201600160008581526020019081526020016000206003016001600086815260200190815260200160002060040160009054906101000a900460ff166001600087815260200190815260200160002060040160019054906101000a900460ff1660016000888152602001908152602001600020600501546001600089815260200190815260200160002060060154600160008a81526020019081526020016000206007018680546104e090611227565b80601f016020809104026020016040519081016040528092919081815260200182805461050c90611227565b80156105595780601f1061052e57610100808354040283529160200191610559565b820191906000526020600020905b81548152906001019060200180831161053c57829003601f168201915b5050505050965085805461056c90611227565b80601f016020809104026020016040519081016040528092919081815260200182805461059890611227565b80156105e55780601f106105ba576101008083540402835291602001916105e5565b820191906000526020600020905b8154815290600101906020018083116105c857829003601f168201915b505050505095508080546105f890611227565b80601f016020809104026020016040519081016040528092919081815260200182805461062490611227565b80156106715780601f1061064657610100808354040283529160200191610671565b820191906000526020600020905b81548152906001019060200180831161065457829003601f168201915b50505050509050995099509950995099509950995099509950506106f9565b808061069b9061128a565b91505061036e565b506000806000600460008060405180602001604052806000815250939291906040518060200160405280600081525093929190604051806020016040528060008152509850985098509850985098509850985098505b9193959799909294969850565b600085511161071457600080fd5b600084511161072257600080fd5b6000808154809291906107349061128a565b91905055506040518061014001604052806000548152602001876002811115610786577f4e487b7100000000000000000000000000000000000000000000000000000000600052602160045260246000fd5b81526020018681526020018581526020018460068111156107d0577f4e487b7100000000000000000000000000000000000000000000000000000000600052602160045260246000fd5b815260200183600581111561080e577f4e487b7100000000000000000000000000000000000000000000000000000000600052602160045260246000fd5b81526020013373ffffffffffffffffffffffffffffffffffffffff16815260200160008152602001600081526020018281525060016000805481526020019081526020016000206000820151816000015560208201518160010160006101000a81548160ff021916908360028111156108b0577f4e487b7100000000000000000000000000000000000000000000000000000000600052602160045260246000fd5b021790555060408201518160020190805190602001906108d1929190610a6c565b5060608201518160030190805190602001906108ee929190610a6c565b5060808201518160040160006101000a81548160ff02191690836006811115610940577f4e487b7100000000000000000000000000000000000000000000000000000000600052602160045260246000fd5b021790555060a08201518160040160016101000a81548160ff02191690836005811115610996577f4e487b7100000000000000000000000000000000000000000000000000000000600052602160045260246000fd5b021790555060c08201518160040160026101000a81548173ffffffffffffffffffffffffffffffffffffffff021916908373ffffffffffffffffffffffffffffffffffffffff16021790555060e082015181600501556101008201518160060155610120820151816007019080519060200190610a14929190610a6c565b509050507f192ca8169a03679f04c38428c058fbeb03ae60c84fb1139e471832c694bd9f026000548787878787336000808a604051610a5c9a99989796959493929190610e92565b60405180910390a1505050505050565b828054610a7890611227565b90600052602060002090601f016020900481019282610a9a5760008555610ae1565b82601f10610ab357805160ff1916838001178555610ae1565b82800160010185558215610ae1579182015b82811115610ae0578251825591602001919060010190610ac5565b5b509050610aee9190610af2565b5090565b5b80821115610b0b576000816000905550600101610af3565b5090565b6000610b22610b1d846110bb565b611096565b905082815260208101848484011115610b3a57600080fd5b610b458482856111e5565b509392505050565b600081359050610b5c816113dc565b92915050565b600081359050610b71816113ec565b92915050565b600081359050610b86816113fc565b92915050565b600082601f830112610b9d57600080fd5b8135610bad848260208601610b0f565b91505092915050565b600081359050610bc58161140c565b92915050565b60008060008060008060c08789031215610be457600080fd5b6000610bf289828a01610b4d565b965050602087013567ffffffffffffffff811115610c0f57600080fd5b610c1b89828a01610b8c565b955050604087013567ffffffffffffffff811115610c3857600080fd5b610c4489828a01610b8c565b9450506060610c5589828a01610b62565b9350506080610c6689828a01610b77565b92505060a087013567ffffffffffffffff811115610c8357600080fd5b610c8f89828a01610b8c565b9150509295509295509295565b600060208284031215610cae57600080fd5b600082013567ffffffffffffffff811115610cc857600080fd5b610cd484828501610b8c565b91505092915050565b600060208284031215610cef57600080fd5b6000610cfd84828501610bb6565b91505092915050565b610d0f81611128565b82525050565b610d1e8161119d565b82525050565b610d2d816111af565b82525050565b610d3c816111c1565b82525050565b610d4b816111d3565b82525050565b6000610d5c82611101565b610d66818561110c565b9350610d768185602086016111f4565b610d7f8161138f565b840191505092915050565b6000610d9582611101565b610d9f818561111d565b9350610daf8185602086016111f4565b80840191505092915050565b60008154610dc881611227565b610dd2818661111d565b94506001821660008114610ded5760018114610dfe57610e31565b60ff19831686528186019350610e31565b610e07856110ec565b60005b83811015610e2957815481890152600182019150602081019050610e0a565b838801955050505b50505092915050565b610e4381611193565b82525050565b6000610e558284610d8a565b915081905092915050565b6000610e6c8284610dbb565b915081905092915050565b6000602082019050610e8c6000830184610e3a565b92915050565b600061014082019050610ea8600083018d610e3a565b610eb5602083018c610d15565b8181036040830152610ec7818b610d51565b90508181036060830152610edb818a610d51565b9050610eea6080830189610d24565b610ef760a0830188610d33565b610f0460c0830187610d06565b610f1160e0830186610d42565b610f1f610100830185610d42565b818103610120830152610f328184610d51565b90509b9a5050505050505050505050565b600061014082019050610f59600083018d610e3a565b610f66602083018c610d15565b8181036040830152610f78818b610d51565b90508181036060830152610f8c818a610d51565b9050610f9b6080830189610d24565b610fa860a0830188610d33565b610fb560c0830187610d06565b610fc260e0830186610e3a565b610fd0610100830185610e3a565b818103610120830152610fe38184610d51565b90509b9a5050505050505050505050565b60006101208201905061100a600083018c610e3a565b611017602083018b610d15565b8181036040830152611029818a610d51565b9050818103606083015261103d8189610d51565b905061104c6080830188610d24565b61105960a0830187610d33565b61106660c0830186610e3a565b61107360e0830185610e3a565b8181036101008301526110868184610d51565b90509a9950505050505050505050565b60006110a06110b1565b90506110ac8282611259565b919050565b6000604051905090565b600067ffffffffffffffff8211156110d6576110d5611360565b5b6110df8261138f565b9050602081019050919050565b60008190508160005260206000209050919050565b600081519050919050565b600082825260208201905092915050565b600081905092915050565b600061113382611173565b9050919050565b6000819050611148826113a0565b919050565b600081905061115b826113b4565b919050565b600081905061116e826113c8565b919050565b600073ffffffffffffffffffffffffffffffffffffffff82169050919050565b6000819050919050565b60006111a88261113a565b9050919050565b60006111ba8261114d565b9050919050565b60006111cc82611160565b9050919050565b60006111de82611193565b9050919050565b82818337600083830152505050565b60005b838110156112125780820151818401526020810190506111f7565b83811115611221576000848401525b50505050565b6000600282049050600182168061123f57607f821691505b6020821081141561125357611252611331565b5b50919050565b6112628261138f565b810181811067ffffffffffffffff8211171561128157611280611360565b5b80604052505050565b600061129582611193565b91507fffffffffffffffffffffffffffffffffffffffffffffffffffffffffffffffff8214156112c8576112c76112d3565b5b600182019050919050565b7f4e487b7100000000000000000000000000000000000000000000000000000000600052601160045260246000fd5b7f4e487b7100000000000000000000000000000000000000000000000000000000600052602160045260246000fd5b7f4e487b7100000000000000000000000000000000000000000000000000000000600052602260045260246000fd5b7f4e487b7100000000000000000000000000000000000000000000000000000000600052604160045260246000fd5b6000601f19601f8301169050919050565b600381106113b1576113b0611302565b5b50565b600781106113c5576113c4611302565b5b50565b600681106113d9576113d8611302565b5b50565b600381106113e957600080fd5b50565b600781106113f957600080fd5b50565b6006811061140957600080fd5b50565b61141581611193565b811461142057600080fd5b5056fea264697066735822122019c45118ee23e0d0ab1a289645721b6059400ab7c2af43589169184299e7bd5a64736f6c63430008040033",
  "linkReferences": {},
  "deployedLinkReferences": {}
}