{
  "_format": "hh-sol-artifact-1",
  "contractName": "DRate",
  "sourceName": "src/backend/contracts/DRate.sol",
  "abi": [
    {
      "inputs": [],
      "stateMutability": "nonpayable",
      "type": "constructor"
    },
    {
      "anonymous": false,
      "inputs": [
        {
          "indexed": false,
          "internalType": "uint256",
          "name": "eventID",
          "type": "uint256"
        },
        {
          "indexed": false,
          "internalType": "enum DRate.EventType",
          "name": "eventType",
          "type": "uint8"
        },
        {
          "indexed": false,
          "internalType": "string",
          "name": "eventName",
          "type": "string"
        },
        {
          "indexed": false,
          "internalType": "string",
          "name": "eventDescription",
          "type": "string"
        },
        {
          "indexed": false,
          "internalType": "enum DRate.Language",
          "name": "language",
          "type": "uint8"
        },
        {
          "indexed": false,
          "internalType": "enum DRate.Tag",
          "name": "tags",
          "type": "uint8"
        },
        {
          "indexed": false,
          "internalType": "address",
          "name": "author",
          "type": "address"
        },
        {
          "indexed": false,
          "internalType": "uint256",
          "name": "rating",
          "type": "uint256"
        },
        {
          "indexed": false,
          "internalType": "uint256",
          "name": "numberOfRatings",
          "type": "uint256"
        },
        {
          "indexed": false,
          "internalType": "string",
          "name": "posterURL",
          "type": "string"
        }
      ],
      "name": "EventAdded",
      "type": "event"
    },
    {
      "inputs": [
        {
          "internalType": "enum DRate.EventType",
          "name": "_eventType",
          "type": "uint8"
        },
        {
          "internalType": "string",
          "name": "_eventName",
          "type": "string"
        },
        {
          "internalType": "string",
          "name": "_eventDescription",
          "type": "string"
        },
        {
          "internalType": "enum DRate.Language",
          "name": "_language",
          "type": "uint8"
        },
        {
          "internalType": "enum DRate.Tag",
          "name": "_tags",
          "type": "uint8"
        },
        {
          "internalType": "string",
          "name": "_posterURL",
          "type": "string"
        }
      ],
      "name": "addEvent",
      "outputs": [],
      "stateMutability": "nonpayable",
      "type": "function"
    },
    {
      "inputs": [
        {
          "internalType": "uint256",
          "name": "",
          "type": "uint256"
        }
      ],
      "name": "allEvents",
      "outputs": [
        {
          "internalType": "uint256",
          "name": "eventID",
          "type": "uint256"
        },
        {
          "internalType": "enum DRate.EventType",
          "name": "eventType",
          "type": "uint8"
        },
        {
          "internalType": "string",
          "name": "eventName",
          "type": "string"
        },
        {
          "internalType": "string",
          "name": "eventDescription",
          "type": "string"
        },
        {
          "internalType": "enum DRate.Language",
          "name": "language",
          "type": "uint8"
        },
        {
          "internalType": "enum DRate.Tag",
          "name": "tags",
          "type": "uint8"
        },
        {
          "internalType": "address",
          "name": "author",
          "type": "address"
        },
        {
          "internalType": "uint256",
          "name": "rating",
          "type": "uint256"
        },
        {
          "internalType": "uint256",
          "name": "numberOfRatings",
          "type": "uint256"
        },
        {
          "internalType": "string",
          "name": "posterURL",
          "type": "string"
        }
      ],
      "stateMutability": "view",
      "type": "function"
    },
    {
      "inputs": [],
      "name": "eventID",
      "outputs": [
        {
          "internalType": "uint256",
          "name": "",
          "type": "uint256"
        }
      ],
      "stateMutability": "view",
      "type": "function"
    }
  ],
  "bytecode": "0x60806040526000805534801561001457600080fd5b50610e64806100246000396000f3fe608060405234801561001057600080fd5b50600436106100415760003560e01c80633bec5cff146100465780639716bff51461007f578063ea92b0c01461009d575b600080fd5b610060600480360381019061005b9190610888565b6100b9565b6040516100769a99989796959493929190610a10565b60405180910390f35b6100876102ec565b6040516100949190610944565b60405180910390f35b6100b760048036038101906100b291906107b7565b6102f2565b005b60016020528060005260406000206000915090508060000154908060010160009054906101000a900460ff16908060020180546100f590610c32565b80601f016020809104026020016040519081016040528092919081815260200182805461012190610c32565b801561016e5780601f106101435761010080835404028352916020019161016e565b820191906000526020600020905b81548152906001019060200180831161015157829003601f168201915b50505050509080600301805461018390610c32565b80601f01602080910402602001604051908101604052809291908181526020018280546101af90610c32565b80156101fc5780601f106101d1576101008083540402835291602001916101fc565b820191906000526020600020905b8154815290600101906020018083116101df57829003601f168201915b5050505050908060040160009054906101000a900460ff16908060040160019054906101000a900460ff16908060040160029054906101000a900473ffffffffffffffffffffffffffffffffffffffff169080600501549080600601549080600701805461026990610c32565b80601f016020809104026020016040519081016040528092919081815260200182805461029590610c32565b80156102e25780601f106102b7576101008083540402835291602001916102e2565b820191906000526020600020905b8154815290600101906020018083116102c557829003601f168201915b505050505090508a565b60005481565b600085511161030057600080fd5b600084511161030e57600080fd5b60008081548092919061032090610c95565b91905055506040518061014001604052806000548152602001876002811115610372577f4e487b7100000000000000000000000000000000000000000000000000000000600052602160045260246000fd5b81526020018681526020018581526020018460068111156103bc577f4e487b7100000000000000000000000000000000000000000000000000000000600052602160045260246000fd5b81526020018360058111156103fa577f4e487b7100000000000000000000000000000000000000000000000000000000600052602160045260246000fd5b81526020013373ffffffffffffffffffffffffffffffffffffffff16815260200160008152602001600081526020018281525060016000805481526020019081526020016000206000820151816000015560208201518160010160006101000a81548160ff0219169083600281111561049c577f4e487b7100000000000000000000000000000000000000000000000000000000600052602160045260246000fd5b021790555060408201518160020190805190602001906104bd929190610658565b5060608201518160030190805190602001906104da929190610658565b5060808201518160040160006101000a81548160ff0219169083600681111561052c577f4e487b7100000000000000000000000000000000000000000000000000000000600052602160045260246000fd5b021790555060a08201518160040160016101000a81548160ff02191690836005811115610582577f4e487b7100000000000000000000000000000000000000000000000000000000600052602160045260246000fd5b021790555060c08201518160040160026101000a81548173ffffffffffffffffffffffffffffffffffffffff021916908373ffffffffffffffffffffffffffffffffffffffff16021790555060e082015181600501556101008201518160060155610120820151816007019080519060200190610600929190610658565b509050507f192ca8169a03679f04c38428c058fbeb03ae60c84fb1139e471832c694bd9f026000548787878787336000808a6040516106489a9998979695949392919061095f565b60405180910390a1505050505050565b82805461066490610c32565b90600052602060002090601f01602090048101928261068657600085556106cd565b82601f1061069f57805160ff19168380011785556106cd565b828001600101855582156106cd579182015b828111156106cc5782518255916020019190600101906106b1565b5b5090506106da91906106de565b5090565b5b808211156106f75760008160009055506001016106df565b5090565b600061070e61070984610ae6565b610ac1565b90508281526020810184848401111561072657600080fd5b610731848285610bf0565b509392505050565b60008135905061074881610de7565b92915050565b60008135905061075d81610df7565b92915050565b60008135905061077281610e07565b92915050565b600082601f83011261078957600080fd5b81356107998482602086016106fb565b91505092915050565b6000813590506107b181610e17565b92915050565b60008060008060008060c087890312156107d057600080fd5b60006107de89828a01610739565b965050602087013567ffffffffffffffff8111156107fb57600080fd5b61080789828a01610778565b955050604087013567ffffffffffffffff81111561082457600080fd5b61083089828a01610778565b945050606061084189828a0161074e565b935050608061085289828a01610763565b92505060a087013567ffffffffffffffff81111561086f57600080fd5b61087b89828a01610778565b9150509295509295509295565b60006020828403121561089a57600080fd5b60006108a8848285016107a2565b91505092915050565b6108ba81610b33565b82525050565b6108c981610ba8565b82525050565b6108d881610bba565b82525050565b6108e781610bcc565b82525050565b6108f681610bde565b82525050565b600061090782610b17565b6109118185610b22565b9350610921818560208601610bff565b61092a81610d9a565b840191505092915050565b61093e81610b9e565b82525050565b60006020820190506109596000830184610935565b92915050565b600061014082019050610975600083018d610935565b610982602083018c6108c0565b8181036040830152610994818b6108fc565b905081810360608301526109a8818a6108fc565b90506109b760808301896108cf565b6109c460a08301886108de565b6109d160c08301876108b1565b6109de60e08301866108ed565b6109ec6101008301856108ed565b8181036101208301526109ff81846108fc565b90509b9a5050505050505050505050565b600061014082019050610a26600083018d610935565b610a33602083018c6108c0565b8181036040830152610a45818b6108fc565b90508181036060830152610a59818a6108fc565b9050610a6860808301896108cf565b610a7560a08301886108de565b610a8260c08301876108b1565b610a8f60e0830186610935565b610a9d610100830185610935565b818103610120830152610ab081846108fc565b90509b9a5050505050505050505050565b6000610acb610adc565b9050610ad78282610c64565b919050565b6000604051905090565b600067ffffffffffffffff821115610b0157610b00610d6b565b5b610b0a82610d9a565b9050602081019050919050565b600081519050919050565b600082825260208201905092915050565b6000610b3e82610b7e565b9050919050565b6000819050610b5382610dab565b919050565b6000819050610b6682610dbf565b919050565b6000819050610b7982610dd3565b919050565b600073ffffffffffffffffffffffffffffffffffffffff82169050919050565b6000819050919050565b6000610bb382610b45565b9050919050565b6000610bc582610b58565b9050919050565b6000610bd782610b6b565b9050919050565b6000610be982610b9e565b9050919050565b82818337600083830152505050565b60005b83811015610c1d578082015181840152602081019050610c02565b83811115610c2c576000848401525b50505050565b60006002820490506001821680610c4a57607f821691505b60208210811415610c5e57610c5d610d3c565b5b50919050565b610c6d82610d9a565b810181811067ffffffffffffffff82111715610c8c57610c8b610d6b565b5b80604052505050565b6000610ca082610b9e565b91507fffffffffffffffffffffffffffffffffffffffffffffffffffffffffffffffff821415610cd357610cd2610cde565b5b600182019050919050565b7f4e487b7100000000000000000000000000000000000000000000000000000000600052601160045260246000fd5b7f4e487b7100000000000000000000000000000000000000000000000000000000600052602160045260246000fd5b7f4e487b7100000000000000000000000000000000000000000000000000000000600052602260045260246000fd5b7f4e487b7100000000000000000000000000000000000000000000000000000000600052604160045260246000fd5b6000601f19601f8301169050919050565b60038110610dbc57610dbb610d0d565b5b50565b60078110610dd057610dcf610d0d565b5b50565b60068110610de457610de3610d0d565b5b50565b60038110610df457600080fd5b50565b60078110610e0457600080fd5b50565b60068110610e1457600080fd5b50565b610e2081610b9e565b8114610e2b57600080fd5b5056fea264697066735822122084bc961eaa6926c65f31bf8ded3a62973a564b9ce8fedc8995056aec14208e5a64736f6c63430008040033",
  "linkReferences": {},
  "deployedLinkReferences": {}
}