{
  "_format": "hh-sol-artifact-1",
  "contractName": "DRate",
  "sourceName": "src/backend/contracts/DRate.sol",
  "abi": [
    {
      "inputs": [],
      "stateMutability": "nonpayable",
      "type": "constructor"
    },
    {
      "anonymous": false,
      "inputs": [
        {
          "indexed": false,
          "internalType": "uint256",
          "name": "eventID",
          "type": "uint256"
        },
        {
          "indexed": false,
          "internalType": "enum DRate.EventType",
          "name": "eventType",
          "type": "uint8"
        },
        {
          "indexed": false,
          "internalType": "string",
          "name": "eventName",
          "type": "string"
        },
        {
          "indexed": false,
          "internalType": "string",
          "name": "eventDescription",
          "type": "string"
        },
        {
          "indexed": false,
          "internalType": "enum DRate.Language",
          "name": "language",
          "type": "uint8"
        },
        {
          "indexed": false,
          "internalType": "enum DRate.Tag",
          "name": "tags",
          "type": "uint8"
        },
        {
          "indexed": false,
          "internalType": "address",
          "name": "author",
          "type": "address"
        },
        {
          "indexed": false,
          "internalType": "uint256",
          "name": "rating",
          "type": "uint256"
        },
        {
          "indexed": false,
          "internalType": "uint256",
          "name": "numberOfRatings",
          "type": "uint256"
        },
        {
          "indexed": false,
          "internalType": "string",
          "name": "posterURL",
          "type": "string"
        }
      ],
      "name": "EventAdded",
      "type": "event"
    },
    {
      "inputs": [
        {
          "internalType": "enum DRate.EventType",
          "name": "_eventType",
          "type": "uint8"
        },
        {
          "internalType": "string",
          "name": "_eventName",
          "type": "string"
        },
        {
          "internalType": "string",
          "name": "_eventDescription",
          "type": "string"
        },
        {
          "internalType": "enum DRate.Language",
          "name": "_language",
          "type": "uint8"
        },
        {
          "internalType": "enum DRate.Tag",
          "name": "_tags",
          "type": "uint8"
        },
        {
          "internalType": "string",
          "name": "_posterURL",
          "type": "string"
        }
      ],
      "name": "addEvent",
      "outputs": [],
      "stateMutability": "nonpayable",
      "type": "function"
    },
    {
      "inputs": [
        {
          "internalType": "uint256",
          "name": "",
          "type": "uint256"
        }
      ],
      "name": "allEvents",
      "outputs": [
        {
          "internalType": "uint256",
          "name": "eventID",
          "type": "uint256"
        },
        {
          "internalType": "enum DRate.EventType",
          "name": "eventType",
          "type": "uint8"
        },
        {
          "internalType": "string",
          "name": "eventName",
          "type": "string"
        },
        {
          "internalType": "string",
          "name": "eventDescription",
          "type": "string"
        },
        {
          "internalType": "enum DRate.Language",
          "name": "language",
          "type": "uint8"
        },
        {
          "internalType": "enum DRate.Tag",
          "name": "tags",
          "type": "uint8"
        },
        {
          "internalType": "address",
          "name": "author",
          "type": "address"
        },
        {
          "internalType": "uint256",
          "name": "rating",
          "type": "uint256"
        },
        {
          "internalType": "uint256",
          "name": "numberOfRatings",
          "type": "uint256"
        },
        {
          "internalType": "string",
          "name": "posterURL",
          "type": "string"
        }
      ],
      "stateMutability": "view",
      "type": "function"
    },
    {
      "inputs": [],
      "name": "eventID",
      "outputs": [
        {
          "internalType": "uint256",
          "name": "",
          "type": "uint256"
        }
      ],
      "stateMutability": "view",
      "type": "function"
    },
    {
      "inputs": [
        {
          "internalType": "string",
          "name": "_eventName",
          "type": "string"
        }
      ],
      "name": "getMovieByName",
      "outputs": [
        {
          "internalType": "uint256",
          "name": "",
          "type": "uint256"
        },
        {
          "internalType": "enum DRate.EventType",
          "name": "",
          "type": "uint8"
        },
        {
          "internalType": "string",
          "name": "",
          "type": "string"
        },
        {
          "internalType": "string",
          "name": "",
          "type": "string"
        },
        {
          "internalType": "enum DRate.Language",
          "name": "",
          "type": "uint8"
        },
        {
          "internalType": "enum DRate.Tag",
          "name": "",
          "type": "uint8"
        },
        {
          "internalType": "uint256",
          "name": "",
          "type": "uint256"
        },
        {
          "internalType": "uint256",
          "name": "",
          "type": "uint256"
        },
        {
          "internalType": "string",
          "name": "",
          "type": "string"
        }
      ],
      "stateMutability": "view",
      "type": "function"
    }
  ],
  "bytecode": "0x60806040526000805534801561001457600080fd5b5061143f806100246000396000f3fe608060405234801561001057600080fd5b506004361061004c5760003560e01c80633bec5cff146100515780639716bff51461008a5780639beb5e31146100a8578063ea92b0c0146100e0575b600080fd5b61006b60048036038101906100669190610cc3565b6100fc565b6040516100819a99989796959493929190610f29565b60405180910390f35b61009261032f565b60405161009f9190610e5d565b60405180910390f35b6100c260048036038101906100bd9190610c82565b610335565b6040516100d799989796959493929190610fda565b60405180910390f35b6100fa60048036038101906100f59190610bb1565b6106ec565b005b60016020528060005260406000206000915090508060000154908060010160009054906101000a900460ff16908060020180546101389061120d565b80601f01602080910402602001604051908101604052809291908181526020018280546101649061120d565b80156101b15780601f10610186576101008083540402835291602001916101b1565b820191906000526020600020905b81548152906001019060200180831161019457829003601f168201915b5050505050908060030180546101c69061120d565b80601f01602080910402602001604051908101604052809291908181526020018280546101f29061120d565b801561023f5780601f106102145761010080835404028352916020019161023f565b820191906000526020600020905b81548152906001019060200180831161022257829003601f168201915b5050505050908060040160009054906101000a900460ff16908060040160019054906101000a900460ff16908060040160029054906101000a900473ffffffffffffffffffffffffffffffffffffffff16908060050154908060060154908060070180546102ac9061120d565b80601f01602080910402602001604051908101604052809291908181526020018280546102d89061120d565b80156103255780601f106102fa57610100808354040283529160200191610325565b820191906000526020600020905b81548152906001019060200180831161030857829003601f168201915b505050505090508a565b60005481565b600080606080600080600080606060008a511161035157600080fd5b60005b600054811015610689578a60405160200161036f9190610e2f565b60405160208183030381529060405280519060200120600160008381526020019081526020016000206002016040516020016103ab9190610e46565b6040516020818303038152906040528051906020012014156106765760016000828152602001908152602001600020600001546001600083815260200190815260200160002060010160009054906101000a900460ff1660016000848152602001908152602001600020600201600160008581526020019081526020016000206003016001600086815260200190815260200160002060040160009054906101000a900460ff166001600087815260200190815260200160002060040160019054906101000a900460ff1660016000888152602001908152602001600020600501546001600089815260200190815260200160002060060154600160008a81526020019081526020016000206007018680546104c69061120d565b80601f01602080910402602001604051908101604052809291908181526020018280546104f29061120d565b801561053f5780601f106105145761010080835404028352916020019161053f565b820191906000526020600020905b81548152906001019060200180831161052257829003601f168201915b505050505096508580546105529061120d565b80601f016020809104026020016040519081016040528092919081815260200182805461057e9061120d565b80156105cb5780601f106105a0576101008083540402835291602001916105cb565b820191906000526020600020905b8154815290600101906020018083116105ae57829003601f168201915b505050505095508080546105de9061120d565b80601f016020809104026020016040519081016040528092919081815260200182805461060a9061120d565b80156106575780601f1061062c57610100808354040283529160200191610657565b820191906000526020600020905b81548152906001019060200180831161063a57829003601f168201915b50505050509050995099509950995099509950995099509950506106df565b808061068190611270565b915050610354565b506000806000600460008060405180602001604052806000815250939291906040518060200160405280600081525093929190604051806020016040528060008152509850985098509850985098509850985098505b9193959799909294969850565b60008551116106fa57600080fd5b600084511161070857600080fd5b60008081548092919061071a90611270565b9190505550604051806101400160405280600054815260200187600281111561076c577f4e487b7100000000000000000000000000000000000000000000000000000000600052602160045260246000fd5b81526020018681526020018581526020018460068111156107b6577f4e487b7100000000000000000000000000000000000000000000000000000000600052602160045260246000fd5b81526020018360058111156107f4577f4e487b7100000000000000000000000000000000000000000000000000000000600052602160045260246000fd5b81526020013373ffffffffffffffffffffffffffffffffffffffff16815260200160008152602001600081526020018281525060016000805481526020019081526020016000206000820151816000015560208201518160010160006101000a81548160ff02191690836002811115610896577f4e487b7100000000000000000000000000000000000000000000000000000000600052602160045260246000fd5b021790555060408201518160020190805190602001906108b7929190610a52565b5060608201518160030190805190602001906108d4929190610a52565b5060808201518160040160006101000a81548160ff02191690836006811115610926577f4e487b7100000000000000000000000000000000000000000000000000000000600052602160045260246000fd5b021790555060a08201518160040160016101000a81548160ff0219169083600581111561097c577f4e487b7100000000000000000000000000000000000000000000000000000000600052602160045260246000fd5b021790555060c08201518160040160026101000a81548173ffffffffffffffffffffffffffffffffffffffff021916908373ffffffffffffffffffffffffffffffffffffffff16021790555060e0820151816005015561010082015181600601556101208201518160070190805190602001906109fa929190610a52565b509050507f192ca8169a03679f04c38428c058fbeb03ae60c84fb1139e471832c694bd9f026000548787878787336000808a604051610a429a99989796959493929190610e78565b60405180910390a1505050505050565b828054610a5e9061120d565b90600052602060002090601f016020900481019282610a805760008555610ac7565b82601f10610a9957805160ff1916838001178555610ac7565b82800160010185558215610ac7579182015b82811115610ac6578251825591602001919060010190610aab565b5b509050610ad49190610ad8565b5090565b5b80821115610af1576000816000905550600101610ad9565b5090565b6000610b08610b03846110a1565b61107c565b905082815260208101848484011115610b2057600080fd5b610b2b8482856111cb565b509392505050565b600081359050610b42816113c2565b92915050565b600081359050610b57816113d2565b92915050565b600081359050610b6c816113e2565b92915050565b600082601f830112610b8357600080fd5b8135610b93848260208601610af5565b91505092915050565b600081359050610bab816113f2565b92915050565b60008060008060008060c08789031215610bca57600080fd5b6000610bd889828a01610b33565b965050602087013567ffffffffffffffff811115610bf557600080fd5b610c0189828a01610b72565b955050604087013567ffffffffffffffff811115610c1e57600080fd5b610c2a89828a01610b72565b9450506060610c3b89828a01610b48565b9350506080610c4c89828a01610b5d565b92505060a087013567ffffffffffffffff811115610c6957600080fd5b610c7589828a01610b72565b9150509295509295509295565b600060208284031215610c9457600080fd5b600082013567ffffffffffffffff811115610cae57600080fd5b610cba84828501610b72565b91505092915050565b600060208284031215610cd557600080fd5b6000610ce384828501610b9c565b91505092915050565b610cf58161110e565b82525050565b610d0481611183565b82525050565b610d1381611195565b82525050565b610d22816111a7565b82525050565b610d31816111b9565b82525050565b6000610d42826110e7565b610d4c81856110f2565b9350610d5c8185602086016111da565b610d6581611375565b840191505092915050565b6000610d7b826110e7565b610d858185611103565b9350610d958185602086016111da565b80840191505092915050565b60008154610dae8161120d565b610db88186611103565b94506001821660008114610dd35760018114610de457610e17565b60ff19831686528186019350610e17565b610ded856110d2565b60005b83811015610e0f57815481890152600182019150602081019050610df0565b838801955050505b50505092915050565b610e2981611179565b82525050565b6000610e3b8284610d70565b915081905092915050565b6000610e528284610da1565b915081905092915050565b6000602082019050610e726000830184610e20565b92915050565b600061014082019050610e8e600083018d610e20565b610e9b602083018c610cfb565b8181036040830152610ead818b610d37565b90508181036060830152610ec1818a610d37565b9050610ed06080830189610d0a565b610edd60a0830188610d19565b610eea60c0830187610cec565b610ef760e0830186610d28565b610f05610100830185610d28565b818103610120830152610f188184610d37565b90509b9a5050505050505050505050565b600061014082019050610f3f600083018d610e20565b610f4c602083018c610cfb565b8181036040830152610f5e818b610d37565b90508181036060830152610f72818a610d37565b9050610f816080830189610d0a565b610f8e60a0830188610d19565b610f9b60c0830187610cec565b610fa860e0830186610e20565b610fb6610100830185610e20565b818103610120830152610fc98184610d37565b90509b9a5050505050505050505050565b600061012082019050610ff0600083018c610e20565b610ffd602083018b610cfb565b818103604083015261100f818a610d37565b905081810360608301526110238189610d37565b90506110326080830188610d0a565b61103f60a0830187610d19565b61104c60c0830186610e20565b61105960e0830185610e20565b81810361010083015261106c8184610d37565b90509a9950505050505050505050565b6000611086611097565b9050611092828261123f565b919050565b6000604051905090565b600067ffffffffffffffff8211156110bc576110bb611346565b5b6110c582611375565b9050602081019050919050565b60008190508160005260206000209050919050565b600081519050919050565b600082825260208201905092915050565b600081905092915050565b600061111982611159565b9050919050565b600081905061112e82611386565b919050565b60008190506111418261139a565b919050565b6000819050611154826113ae565b919050565b600073ffffffffffffffffffffffffffffffffffffffff82169050919050565b6000819050919050565b600061118e82611120565b9050919050565b60006111a082611133565b9050919050565b60006111b282611146565b9050919050565b60006111c482611179565b9050919050565b82818337600083830152505050565b60005b838110156111f85780820151818401526020810190506111dd565b83811115611207576000848401525b50505050565b6000600282049050600182168061122557607f821691505b6020821081141561123957611238611317565b5b50919050565b61124882611375565b810181811067ffffffffffffffff8211171561126757611266611346565b5b80604052505050565b600061127b82611179565b91507fffffffffffffffffffffffffffffffffffffffffffffffffffffffffffffffff8214156112ae576112ad6112b9565b5b600182019050919050565b7f4e487b7100000000000000000000000000000000000000000000000000000000600052601160045260246000fd5b7f4e487b7100000000000000000000000000000000000000000000000000000000600052602160045260246000fd5b7f4e487b7100000000000000000000000000000000000000000000000000000000600052602260045260246000fd5b7f4e487b7100000000000000000000000000000000000000000000000000000000600052604160045260246000fd5b6000601f19601f8301169050919050565b60038110611397576113966112e8565b5b50565b600781106113ab576113aa6112e8565b5b50565b600681106113bf576113be6112e8565b5b50565b600381106113cf57600080fd5b50565b600781106113df57600080fd5b50565b600681106113ef57600080fd5b50565b6113fb81611179565b811461140657600080fd5b5056fea2646970667358221220570fcf4499c7b886ef9fdbbe645dc170619b864c7f48c3c96431b5d3f2c5bce064736f6c63430008040033",
  "linkReferences": {},
  "deployedLinkReferences": {}
}