{
  "_format": "hh-sol-artifact-1",
  "contractName": "DRate",
  "sourceName": "src/backend/contracts/DRate.sol",
  "abi": [
    {
      "inputs": [],
      "stateMutability": "nonpayable",
      "type": "constructor"
    },
    {
      "anonymous": false,
      "inputs": [
        {
          "indexed": false,
          "internalType": "uint256",
          "name": "eventID",
          "type": "uint256"
        },
        {
          "indexed": false,
          "internalType": "enum DRate.EventType",
          "name": "eventType",
          "type": "uint8"
        },
        {
          "indexed": false,
          "internalType": "string",
          "name": "eventName",
          "type": "string"
        },
        {
          "indexed": false,
          "internalType": "string",
          "name": "eventDescription",
          "type": "string"
        },
        {
          "indexed": false,
          "internalType": "enum DRate.Language",
          "name": "language",
          "type": "uint8"
        },
        {
          "indexed": false,
          "internalType": "enum DRate.Tag",
          "name": "tags",
          "type": "uint8"
        },
        {
          "indexed": false,
          "internalType": "address",
          "name": "author",
          "type": "address"
        },
        {
          "indexed": false,
          "internalType": "uint256",
          "name": "rating",
          "type": "uint256"
        },
        {
          "indexed": false,
          "internalType": "uint256",
          "name": "numberOfRatings",
          "type": "uint256"
        },
        {
          "indexed": false,
          "internalType": "string",
          "name": "posterURL",
          "type": "string"
        }
      ],
      "name": "EventAdded",
      "type": "event"
    },
    {
      "inputs": [
        {
          "internalType": "uint256",
          "name": "_eventID",
          "type": "uint256"
        },
        {
          "internalType": "uint256",
          "name": "numVotes",
          "type": "uint256"
        },
        {
          "internalType": "uint256",
          "name": "rating",
          "type": "uint256"
        }
      ],
      "name": "QVRating",
      "outputs": [],
      "stateMutability": "nonpayable",
      "type": "function"
    },
    {
      "inputs": [
        {
          "internalType": "address",
          "name": "",
          "type": "address"
        }
      ],
      "name": "_balances",
      "outputs": [
        {
          "internalType": "uint256",
          "name": "",
          "type": "uint256"
        }
      ],
      "stateMutability": "view",
      "type": "function"
    },
    {
      "inputs": [
        {
          "internalType": "address",
          "name": "",
          "type": "address"
        }
      ],
      "name": "_voted",
      "outputs": [
        {
          "internalType": "bool",
          "name": "",
          "type": "bool"
        }
      ],
      "stateMutability": "view",
      "type": "function"
    },
    {
      "inputs": [
        {
          "internalType": "enum DRate.EventType",
          "name": "_eventType",
          "type": "uint8"
        },
        {
          "internalType": "string",
          "name": "_eventName",
          "type": "string"
        },
        {
          "internalType": "string",
          "name": "_eventDescription",
          "type": "string"
        },
        {
          "internalType": "enum DRate.Language",
          "name": "_language",
          "type": "uint8"
        },
        {
          "internalType": "enum DRate.Tag",
          "name": "_tags",
          "type": "uint8"
        },
        {
          "internalType": "string",
          "name": "_posterURL",
          "type": "string"
        }
      ],
      "name": "addEvent",
      "outputs": [],
      "stateMutability": "payable",
      "type": "function"
    },
    {
      "inputs": [
        {
          "internalType": "uint256",
          "name": "",
          "type": "uint256"
        }
      ],
      "name": "allEvents",
      "outputs": [
        {
          "internalType": "uint256",
          "name": "eventID",
          "type": "uint256"
        },
        {
          "internalType": "enum DRate.EventType",
          "name": "eventType",
          "type": "uint8"
        },
        {
          "internalType": "string",
          "name": "eventName",
          "type": "string"
        },
        {
          "internalType": "string",
          "name": "eventDescription",
          "type": "string"
        },
        {
          "internalType": "enum DRate.Language",
          "name": "language",
          "type": "uint8"
        },
        {
          "internalType": "enum DRate.Tag",
          "name": "tags",
          "type": "uint8"
        },
        {
          "internalType": "address",
          "name": "author",
          "type": "address"
        },
        {
          "internalType": "uint256",
          "name": "rating",
          "type": "uint256"
        },
        {
          "internalType": "uint256",
          "name": "numberOfRatings",
          "type": "uint256"
        },
        {
          "internalType": "string",
          "name": "posterURL",
          "type": "string"
        }
      ],
      "stateMutability": "view",
      "type": "function"
    },
    {
      "inputs": [],
      "name": "eventID",
      "outputs": [
        {
          "internalType": "uint256",
          "name": "",
          "type": "uint256"
        }
      ],
      "stateMutability": "view",
      "type": "function"
    },
    {
      "inputs": [
        {
          "internalType": "uint256",
          "name": "",
          "type": "uint256"
        }
      ],
      "name": "events",
      "outputs": [
        {
          "internalType": "uint256",
          "name": "eventID",
          "type": "uint256"
        },
        {
          "internalType": "enum DRate.EventType",
          "name": "eventType",
          "type": "uint8"
        },
        {
          "internalType": "string",
          "name": "eventName",
          "type": "string"
        },
        {
          "internalType": "string",
          "name": "eventDescription",
          "type": "string"
        },
        {
          "internalType": "enum DRate.Language",
          "name": "language",
          "type": "uint8"
        },
        {
          "internalType": "enum DRate.Tag",
          "name": "tags",
          "type": "uint8"
        },
        {
          "internalType": "address",
          "name": "author",
          "type": "address"
        },
        {
          "internalType": "uint256",
          "name": "rating",
          "type": "uint256"
        },
        {
          "internalType": "uint256",
          "name": "numberOfRatings",
          "type": "uint256"
        },
        {
          "internalType": "string",
          "name": "posterURL",
          "type": "string"
        }
      ],
      "stateMutability": "view",
      "type": "function"
    },
    {
      "inputs": [
        {
          "internalType": "string",
          "name": "_eventName",
          "type": "string"
        }
      ],
      "name": "getMovieByName",
      "outputs": [
        {
          "internalType": "uint256",
          "name": "",
          "type": "uint256"
        },
        {
          "internalType": "enum DRate.EventType",
          "name": "",
          "type": "uint8"
        },
        {
          "internalType": "string",
          "name": "",
          "type": "string"
        },
        {
          "internalType": "string",
          "name": "",
          "type": "string"
        },
        {
          "internalType": "enum DRate.Language",
          "name": "",
          "type": "uint8"
        },
        {
          "internalType": "enum DRate.Tag",
          "name": "",
          "type": "uint8"
        },
        {
          "internalType": "uint256",
          "name": "",
          "type": "uint256"
        },
        {
          "internalType": "uint256",
          "name": "",
          "type": "uint256"
        },
        {
          "internalType": "string",
          "name": "",
          "type": "string"
        }
      ],
      "stateMutability": "view",
      "type": "function"
    }
  ],
  "bytecode": "0x60806040526000805534801561001457600080fd5b5061239e806100246000396000f3fe60806040526004361061007b5760003560e01c80636ebcf6071161004e5780636ebcf607146101725780639716bff5146101af5780639beb5e31146101da578063ea92b0c01461021f5761007b565b80630b791430146100805780633bec5cff146100c6578063404619df1461010c578063625f3c9914610135575b600080fd5b34801561008c57600080fd5b506100a760048036038101906100a29190611820565b61023b565b6040516100bd9a99989796959493929190611c0b565b60405180910390f35b3480156100d257600080fd5b506100ed60048036038101906100e89190611820565b61047e565b6040516101039a99989796959493929190611c0b565b60405180910390f35b34801561011857600080fd5b50610133600480360381019061012e9190611849565b6106b1565b005b34801561014157600080fd5b5061015c600480360381019061015791906116e5565b610ae3565b6040516101699190611aa4565b60405180910390f35b34801561017e57600080fd5b50610199600480360381019061019491906116e5565b610b03565b6040516101a69190611b3f565b60405180910390f35b3480156101bb57600080fd5b506101c4610b1b565b6040516101d19190611b3f565b60405180910390f35b3480156101e657600080fd5b5061020160048036038101906101fc91906117df565b610b21565b60405161021699989796959493929190611cbc565b60405180910390f35b6102396004803603810190610234919061170e565b610ed8565b005b6002818154811061024b57600080fd5b90600052602060002090600802016000915090508060000154908060010160009054906101000a900460ff169080600201805461028790612010565b80601f01602080910402602001604051908101604052809291908181526020018280546102b390612010565b80156103005780601f106102d557610100808354040283529160200191610300565b820191906000526020600020905b8154815290600101906020018083116102e357829003601f168201915b50505050509080600301805461031590612010565b80601f016020809104026020016040519081016040528092919081815260200182805461034190612010565b801561038e5780601f106103635761010080835404028352916020019161038e565b820191906000526020600020905b81548152906001019060200180831161037157829003601f168201915b5050505050908060040160009054906101000a900460ff16908060040160019054906101000a900460ff16908060040160029054906101000a900473ffffffffffffffffffffffffffffffffffffffff16908060050154908060060154908060070180546103fb90612010565b80601f016020809104026020016040519081016040528092919081815260200182805461042790612010565b80156104745780601f1061044957610100808354040283529160200191610474565b820191906000526020600020905b81548152906001019060200180831161045757829003601f168201915b505050505090508a565b60016020528060005260406000206000915090508060000154908060010160009054906101000a900460ff16908060020180546104ba90612010565b80601f01602080910402602001604051908101604052809291908181526020018280546104e690612010565b80156105335780601f1061050857610100808354040283529160200191610533565b820191906000526020600020905b81548152906001019060200180831161051657829003601f168201915b50505050509080600301805461054890612010565b80601f016020809104026020016040519081016040528092919081815260200182805461057490612010565b80156105c15780601f10610596576101008083540402835291602001916105c1565b820191906000526020600020905b8154815290600101906020018083116105a457829003601f168201915b5050505050908060040160009054906101000a900460ff16908060040160019054906101000a900460ff16908060040160029054906101000a900473ffffffffffffffffffffffffffffffffffffffff169080600501549080600601549080600701805461062e90612010565b80601f016020809104026020016040519081016040528092919081815260200182805461065a90612010565b80156106a75780601f1061067c576101008083540402835291602001916106a7565b820191906000526020600020905b81548152906001019060200180831161068a57829003601f168201915b505050505090508a565b600082116106f4576040517f08c379a00000000000000000000000000000000000000000000000000000000081526004016106eb90611adf565b60405180910390fd5b6000811180156107055750600a8111155b610744576040517f08c379a000000000000000000000000000000000000000000000000000000000815260040161073b90611abf565b60405180910390fd5b60008311801561075657506000548311155b610795576040517f08c379a000000000000000000000000000000000000000000000000000000000815260040161078c90611aff565b60405180910390fd5b60001515600460003373ffffffffffffffffffffffffffffffffffffffff1673ffffffffffffffffffffffffffffffffffffffff16815260200190815260200160002060009054906101000a900460ff161515141561089e576001600460003373ffffffffffffffffffffffffffffffffffffffff1673ffffffffffffffffffffffffffffffffffffffff16815260200190815260200160002060006101000a81548160ff0219169083151502179055506064600360003373ffffffffffffffffffffffffffffffffffffffff1673ffffffffffffffffffffffffffffffffffffffff16815260200190815260200160002060008282546108969190611df0565b925050819055505b600082836108ac9190611e77565b905080600360003373ffffffffffffffffffffffffffffffffffffffff1673ffffffffffffffffffffffffffffffffffffffff168152602001908152602001600020541015610930576040517f08c379a000000000000000000000000000000000000000000000000000000000815260040161092790611b1f565b60405180910390fd5b80600360003373ffffffffffffffffffffffffffffffffffffffff1673ffffffffffffffffffffffffffffffffffffffff168152602001908152602001600020600082825461097f9190611ed1565b92505081905550826001600080548152602001908152602001600020600601546109a99190611df0565b6103e884846109b89190611e77565b6001600080548152602001908152602001600020600601546001600080548152602001908152602001600020600501546109f29190611e77565b6109fc9190611df0565b610a069190611e77565b610a109190611e46565b60026001600054610a219190611ed1565b81548110610a58577f4e487b7100000000000000000000000000000000000000000000000000000000600052603260045260246000fd5b9060005260206000209060080201600501819055508260026001600054610a7f9190611ed1565b81548110610ab6577f4e487b7100000000000000000000000000000000000000000000000000000000600052603260045260246000fd5b90600052602060002090600802016006016000828254610ad69190611df0565b9250508190555050505050565b60046020528060005260406000206000915054906101000a900460ff1681565b60036020528060005260406000206000915090505481565b60005481565b600080606080600080600080606060008a5111610b3d57600080fd5b60005b600054811015610e75578a604051602001610b5b9190611a76565b6040516020818303038152906040528051906020012060016000838152602001908152602001600020600201604051602001610b979190611a8d565b604051602081830303815290604052805190602001201415610e625760016000828152602001908152602001600020600001546001600083815260200190815260200160002060010160009054906101000a900460ff1660016000848152602001908152602001600020600201600160008581526020019081526020016000206003016001600086815260200190815260200160002060040160009054906101000a900460ff166001600087815260200190815260200160002060040160019054906101000a900460ff1660016000888152602001908152602001600020600501546001600089815260200190815260200160002060060154600160008a8152602001908152602001600020600701868054610cb290612010565b80601f0160208091040260200160405190810160405280929190818152602001828054610cde90612010565b8015610d2b5780601f10610d0057610100808354040283529160200191610d2b565b820191906000526020600020905b815481529060010190602001808311610d0e57829003601f168201915b50505050509650858054610d3e90612010565b80601f0160208091040260200160405190810160405280929190818152602001828054610d6a90612010565b8015610db75780601f10610d8c57610100808354040283529160200191610db7565b820191906000526020600020905b815481529060010190602001808311610d9a57829003601f168201915b50505050509550808054610dca90612010565b80601f0160208091040260200160405190810160405280929190818152602001828054610df690612010565b8015610e435780601f10610e1857610100808354040283529160200191610e43565b820191906000526020600020905b815481529060010190602001808311610e2657829003601f168201915b5050505050905099509950995099509950995099509950995050610ecb565b8080610e6d90612073565b915050610b40565b506000806000600460008060405180602001604052806000815250939291906040518060200160405280600081525093929190604051806020016040528060008152509850985098509850985098509850985098505b9193959799909294969850565b6000855111610ee657600080fd5b6000845111610ef457600080fd5b600080815480929190610f0690612073565b91905055506040518061014001604052806000548152602001876002811115610f58577f4e487b7100000000000000000000000000000000000000000000000000000000600052602160045260246000fd5b8152602001868152602001858152602001846006811115610fa2577f4e487b7100000000000000000000000000000000000000000000000000000000600052602160045260246000fd5b8152602001836005811115610fe0577f4e487b7100000000000000000000000000000000000000000000000000000000600052602160045260246000fd5b81526020013373ffffffffffffffffffffffffffffffffffffffff16815260200160008152602001600081526020018281525060016000805481526020019081526020016000206000820151816000015560208201518160010160006101000a81548160ff02191690836002811115611082577f4e487b7100000000000000000000000000000000000000000000000000000000600052602160045260246000fd5b021790555060408201518160020190805190602001906110a39291906114e4565b5060608201518160030190805190602001906110c09291906114e4565b5060808201518160040160006101000a81548160ff02191690836006811115611112577f4e487b7100000000000000000000000000000000000000000000000000000000600052602160045260246000fd5b021790555060a08201518160040160016101000a81548160ff02191690836005811115611168577f4e487b7100000000000000000000000000000000000000000000000000000000600052602160045260246000fd5b021790555060c08201518160040160026101000a81548173ffffffffffffffffffffffffffffffffffffffff021916908373ffffffffffffffffffffffffffffffffffffffff16021790555060e0820151816005015561010082015181600601556101208201518160070190805190602001906111e69291906114e4565b50905050600260016000805481526020019081526020016000209080600181540180825580915050600190039060005260206000209060080201600090919091909150600082015481600001556001820160009054906101000a900460ff168160010160006101000a81548160ff02191690836002811115611291577f4e487b7100000000000000000000000000000000000000000000000000000000600052602160045260246000fd5b021790555060028201816002019080546112aa90612010565b6112b592919061156a565b5060038201816003019080546112ca90612010565b6112d592919061156a565b506004820160009054906101000a900460ff168160040160006101000a81548160ff02191690836006811115611334577f4e487b7100000000000000000000000000000000000000000000000000000000600052602160045260246000fd5b02179055506004820160019054906101000a900460ff168160040160016101000a81548160ff02191690836005811115611397577f4e487b7100000000000000000000000000000000000000000000000000000000600052602160045260246000fd5b02179055506004820160029054906101000a900473ffffffffffffffffffffffffffffffffffffffff168160040160026101000a81548173ffffffffffffffffffffffffffffffffffffffff021916908373ffffffffffffffffffffffffffffffffffffffff1602179055506005820154816005015560068201548160060155600782018160070190805461142b90612010565b61143692919061156a565b5050506032600360003373ffffffffffffffffffffffffffffffffffffffff1673ffffffffffffffffffffffffffffffffffffffff16815260200190815260200160002060008282546114899190611df0565b925050819055507f192ca8169a03679f04c38428c058fbeb03ae60c84fb1139e471832c694bd9f026000548787878787336000808a6040516114d49a99989796959493929190611b5a565b60405180910390a1505050505050565b8280546114f090612010565b90600052602060002090601f0160209004810192826115125760008555611559565b82601f1061152b57805160ff1916838001178555611559565b82800160010185558215611559579182015b8281111561155857825182559160200191906001019061153d565b5b50905061156691906115f7565b5090565b82805461157690612010565b90600052602060002090601f01602090048101928261159857600085556115e6565b82601f106115a957805485556115e6565b828001600101855582156115e657600052602060002091601f016020900482015b828111156115e55782548255916001019190600101906115ca565b5b5090506115f391906115f7565b5090565b5b808211156116105760008160009055506001016115f8565b5090565b600061162761162284611d83565b611d5e565b90508281526020810184848401111561163f57600080fd5b61164a848285611fce565b509392505050565b6000813590506116618161230a565b92915050565b60008135905061167681612321565b92915050565b60008135905061168b81612331565b92915050565b6000813590506116a081612341565b92915050565b600082601f8301126116b757600080fd5b81356116c7848260208601611614565b91505092915050565b6000813590506116df81612351565b92915050565b6000602082840312156116f757600080fd5b600061170584828501611652565b91505092915050565b60008060008060008060c0878903121561172757600080fd5b600061173589828a01611667565b965050602087013567ffffffffffffffff81111561175257600080fd5b61175e89828a016116a6565b955050604087013567ffffffffffffffff81111561177b57600080fd5b61178789828a016116a6565b945050606061179889828a0161167c565b93505060806117a989828a01611691565b92505060a087013567ffffffffffffffff8111156117c657600080fd5b6117d289828a016116a6565b9150509295509295509295565b6000602082840312156117f157600080fd5b600082013567ffffffffffffffff81111561180b57600080fd5b611817848285016116a6565b91505092915050565b60006020828403121561183257600080fd5b6000611840848285016116d0565b91505092915050565b60008060006060848603121561185e57600080fd5b600061186c868287016116d0565b935050602061187d868287016116d0565b925050604061188e868287016116d0565b9150509250925092565b6118a181611f05565b82525050565b6118b081611f17565b82525050565b6118bf81611f86565b82525050565b6118ce81611f98565b82525050565b6118dd81611faa565b82525050565b6118ec81611fbc565b82525050565b60006118fd82611dc9565b6119078185611dd4565b9350611917818560208601611fdd565b611920816121a7565b840191505092915050565b600061193682611dc9565b6119408185611de5565b9350611950818560208601611fdd565b80840191505092915050565b6000815461196981612010565b6119738186611de5565b9450600182166000811461198e576001811461199f576119d2565b60ff198316865281860193506119d2565b6119a885611db4565b60005b838110156119ca578154818901526001820191506020810190506119ab565b838801955050505b50505092915050565b60006119e8602883611dd4565b91506119f3826121b8565b604082019050919050565b6000611a0b602b83611dd4565b9150611a1682612207565b604082019050919050565b6000611a2e602583611dd4565b9150611a3982612256565b604082019050919050565b6000611a51601a83611dd4565b9150611a5c826122a5565b602082019050919050565b611a7081611f7c565b82525050565b6000611a82828461192b565b915081905092915050565b6000611a99828461195c565b915081905092915050565b6000602082019050611ab960008301846118a7565b92915050565b60006020820190508181036000830152611ad8816119db565b9050919050565b60006020820190508181036000830152611af8816119fe565b9050919050565b60006020820190508181036000830152611b1881611a21565b9050919050565b60006020820190508181036000830152611b3881611a44565b9050919050565b6000602082019050611b546000830184611a67565b92915050565b600061014082019050611b70600083018d611a67565b611b7d602083018c6118b6565b8181036040830152611b8f818b6118f2565b90508181036060830152611ba3818a6118f2565b9050611bb260808301896118c5565b611bbf60a08301886118d4565b611bcc60c0830187611898565b611bd960e08301866118e3565b611be76101008301856118e3565b818103610120830152611bfa81846118f2565b90509b9a5050505050505050505050565b600061014082019050611c21600083018d611a67565b611c2e602083018c6118b6565b8181036040830152611c40818b6118f2565b90508181036060830152611c54818a6118f2565b9050611c6360808301896118c5565b611c7060a08301886118d4565b611c7d60c0830187611898565b611c8a60e0830186611a67565b611c98610100830185611a67565b818103610120830152611cab81846118f2565b90509b9a5050505050505050505050565b600061012082019050611cd2600083018c611a67565b611cdf602083018b6118b6565b8181036040830152611cf1818a6118f2565b90508181036060830152611d0581896118f2565b9050611d1460808301886118c5565b611d2160a08301876118d4565b611d2e60c0830186611a67565b611d3b60e0830185611a67565b818103610100830152611d4e81846118f2565b90509a9950505050505050505050565b6000611d68611d79565b9050611d748282612042565b919050565b6000604051905090565b600067ffffffffffffffff821115611d9e57611d9d612178565b5b611da7826121a7565b9050602081019050919050565b60008190508160005260206000209050919050565b600081519050919050565b600082825260208201905092915050565b600081905092915050565b6000611dfb82611f7c565b9150611e0683611f7c565b9250827fffffffffffffffffffffffffffffffffffffffffffffffffffffffffffffffff03821115611e3b57611e3a6120bc565b5b828201905092915050565b6000611e5182611f7c565b9150611e5c83611f7c565b925082611e6c57611e6b6120eb565b5b828204905092915050565b6000611e8282611f7c565b9150611e8d83611f7c565b9250817fffffffffffffffffffffffffffffffffffffffffffffffffffffffffffffffff0483118215151615611ec657611ec56120bc565b5b828202905092915050565b6000611edc82611f7c565b9150611ee783611f7c565b925082821015611efa57611ef96120bc565b5b828203905092915050565b6000611f1082611f5c565b9050919050565b60008115159050919050565b6000819050611f31826122ce565b919050565b6000819050611f44826122e2565b919050565b6000819050611f57826122f6565b919050565b600073ffffffffffffffffffffffffffffffffffffffff82169050919050565b6000819050919050565b6000611f9182611f23565b9050919050565b6000611fa382611f36565b9050919050565b6000611fb582611f49565b9050919050565b6000611fc782611f7c565b9050919050565b82818337600083830152505050565b60005b83811015611ffb578082015181840152602081019050611fe0565b8381111561200a576000848401525b50505050565b6000600282049050600182168061202857607f821691505b6020821081141561203c5761203b612149565b5b50919050565b61204b826121a7565b810181811067ffffffffffffffff8211171561206a57612069612178565b5b80604052505050565b600061207e82611f7c565b91507fffffffffffffffffffffffffffffffffffffffffffffffffffffffffffffffff8214156120b1576120b06120bc565b5b600182019050919050565b7f4e487b7100000000000000000000000000000000000000000000000000000000600052601160045260246000fd5b7f4e487b7100000000000000000000000000000000000000000000000000000000600052601260045260246000fd5b7f4e487b7100000000000000000000000000000000000000000000000000000000600052602160045260246000fd5b7f4e487b7100000000000000000000000000000000000000000000000000000000600052602260045260246000fd5b7f4e487b7100000000000000000000000000000000000000000000000000000000600052604160045260246000fd5b6000601f19601f8301169050919050565b7f526174696e672073686f756c64206265206265747765656e2072616e6765206f60008201527f662031202d203130000000000000000000000000000000000000000000000000602082015250565b7f4e756d626572206f6620766f7465732073686f756c642062652067726561746560008201527f72207468616e207a65726f000000000000000000000000000000000000000000602082015250565b7f4576656e7449442077696c6c206265206265747765656e203120616e6420657660008201527f656e744944000000000000000000000000000000000000000000000000000000602082015250565b7f4e6f7420656e6f7567682062616c616e636520746f20766f7465000000000000600082015250565b600381106122df576122de61211a565b5b50565b600781106122f3576122f261211a565b5b50565b600681106123075761230661211a565b5b50565b61231381611f05565b811461231e57600080fd5b50565b6003811061232e57600080fd5b50565b6007811061233e57600080fd5b50565b6006811061234e57600080fd5b50565b61235a81611f7c565b811461236557600080fd5b5056fea2646970667358221220ed7491796d36c31853d3db0ca8b17378fd612ad9e0d58a926f80c8f27283325464736f6c63430008040033",
  "linkReferences": {},
  "deployedLinkReferences": {}
}