{
  "_format": "hh-sol-artifact-1",
  "contractName": "DRate",
  "sourceName": "src/backend/contracts/DRate.sol",
  "abi": [
    {
      "inputs": [],
      "stateMutability": "nonpayable",
      "type": "constructor"
    },
    {
      "anonymous": false,
      "inputs": [
        {
          "indexed": false,
          "internalType": "uint256",
          "name": "eventID",
          "type": "uint256"
        },
        {
          "indexed": false,
          "internalType": "enum DRate.EventType",
          "name": "eventType",
          "type": "uint8"
        },
        {
          "indexed": false,
          "internalType": "string",
          "name": "eventName",
          "type": "string"
        },
        {
          "indexed": false,
          "internalType": "string",
          "name": "eventDescription",
          "type": "string"
        },
        {
          "indexed": false,
          "internalType": "enum DRate.Language",
          "name": "language",
          "type": "uint8"
        },
        {
          "indexed": false,
          "internalType": "enum DRate.Tag",
          "name": "tags",
          "type": "uint8"
        },
        {
          "indexed": false,
          "internalType": "address",
          "name": "author",
          "type": "address"
        },
        {
          "indexed": false,
          "internalType": "uint256",
          "name": "rating",
          "type": "uint256"
        }
      ],
      "name": "EventAdded",
      "type": "event"
    },
    {
      "inputs": [
        {
          "internalType": "enum DRate.EventType",
          "name": "_eventType",
          "type": "uint8"
        },
        {
          "internalType": "string",
          "name": "_eventName",
          "type": "string"
        },
        {
          "internalType": "string",
          "name": "_eventDescription",
          "type": "string"
        },
        {
          "internalType": "enum DRate.Language",
          "name": "_language",
          "type": "uint8"
        },
        {
          "internalType": "enum DRate.Tag",
          "name": "_tags",
          "type": "uint8"
        }
      ],
      "name": "addEvent",
      "outputs": [],
      "stateMutability": "nonpayable",
      "type": "function"
    },
    {
      "inputs": [
        {
          "internalType": "uint256",
          "name": "",
          "type": "uint256"
        }
      ],
      "name": "allEvents",
      "outputs": [
        {
          "internalType": "uint256",
          "name": "eventID",
          "type": "uint256"
        },
        {
          "internalType": "enum DRate.EventType",
          "name": "eventType",
          "type": "uint8"
        },
        {
          "internalType": "string",
          "name": "eventName",
          "type": "string"
        },
        {
          "internalType": "string",
          "name": "eventDescription",
          "type": "string"
        },
        {
          "internalType": "enum DRate.Language",
          "name": "language",
          "type": "uint8"
        },
        {
          "internalType": "enum DRate.Tag",
          "name": "tags",
          "type": "uint8"
        },
        {
          "internalType": "address",
          "name": "author",
          "type": "address"
        },
        {
          "internalType": "uint256",
          "name": "rating",
          "type": "uint256"
        }
      ],
      "stateMutability": "view",
      "type": "function"
    },
    {
      "inputs": [],
      "name": "eventID",
      "outputs": [
        {
          "internalType": "uint256",
          "name": "",
          "type": "uint256"
        }
      ],
      "stateMutability": "view",
      "type": "function"
    }
  ],
  "bytecode": "0x60806040526000805534801561001457600080fd5b50610d1f806100246000396000f3fe608060405234801561001057600080fd5b50600436106100415760003560e01c80633bec5cff146100465780639716bff51461007d578063ae9634241461009b575b600080fd5b610060600480360381019061005b919061078d565b6100b7565b6040516100749897969594939291906108f0565b60405180910390f35b610085610256565b6040516100929190610849565b60405180910390f35b6100b560048036038101906100b091906106e6565b61025c565b005b60016020528060005260406000206000915090508060000154908060010160009054906101000a900460ff16908060020180546100f390610aed565b80601f016020809104026020016040519081016040528092919081815260200182805461011f90610aed565b801561016c5780601f106101415761010080835404028352916020019161016c565b820191906000526020600020905b81548152906001019060200180831161014f57829003601f168201915b50505050509080600301805461018190610aed565b80601f01602080910402602001604051908101604052809291908181526020018280546101ad90610aed565b80156101fa5780601f106101cf576101008083540402835291602001916101fa565b820191906000526020600020905b8154815290600101906020018083116101dd57829003601f168201915b5050505050908060040160009054906101000a900460ff16908060040160019054906101000a900460ff16908060040160029054906101000a900473ffffffffffffffffffffffffffffffffffffffff16908060050154905088565b60005481565b600084511161026a57600080fd5b600083511161027857600080fd5b60008081548092919061028a90610b50565b919050555060405180610100016040528060005481526020018660028111156102dc577f4e487b7100000000000000000000000000000000000000000000000000000000600052602160045260246000fd5b8152602001858152602001848152602001836006811115610326577f4e487b7100000000000000000000000000000000000000000000000000000000600052602160045260246000fd5b8152602001826005811115610364577f4e487b7100000000000000000000000000000000000000000000000000000000600052602160045260246000fd5b81526020013373ffffffffffffffffffffffffffffffffffffffff168152602001600081525060016000805481526020019081526020016000206000820151816000015560208201518160010160006101000a81548160ff021916908360028111156103f9577f4e487b7100000000000000000000000000000000000000000000000000000000600052602160045260246000fd5b0217905550604082015181600201908051906020019061041a929190610587565b506060820151816003019080519060200190610437929190610587565b5060808201518160040160006101000a81548160ff02191690836006811115610489577f4e487b7100000000000000000000000000000000000000000000000000000000600052602160045260246000fd5b021790555060a08201518160040160016101000a81548160ff021916908360058111156104df577f4e487b7100000000000000000000000000000000000000000000000000000000600052602160045260246000fd5b021790555060c08201518160040160026101000a81548173ffffffffffffffffffffffffffffffffffffffff021916908373ffffffffffffffffffffffffffffffffffffffff16021790555060e082015181600501559050507f3dc5f8662f49051847112fef8ad39e32e3ba6f4a8ab9f31a9933a76e24a8ee0b6000548686868686336000604051610578989796959493929190610864565b60405180910390a15050505050565b82805461059390610aed565b90600052602060002090601f0160209004810192826105b557600085556105fc565b82601f106105ce57805160ff19168380011785556105fc565b828001600101855582156105fc579182015b828111156105fb5782518255916020019190600101906105e0565b5b509050610609919061060d565b5090565b5b8082111561062657600081600090555060010161060e565b5090565b600061063d610638846109a1565b61097c565b90508281526020810184848401111561065557600080fd5b610660848285610aab565b509392505050565b60008135905061067781610ca2565b92915050565b60008135905061068c81610cb2565b92915050565b6000813590506106a181610cc2565b92915050565b600082601f8301126106b857600080fd5b81356106c884826020860161062a565b91505092915050565b6000813590506106e081610cd2565b92915050565b600080600080600060a086880312156106fe57600080fd5b600061070c88828901610668565b955050602086013567ffffffffffffffff81111561072957600080fd5b610735888289016106a7565b945050604086013567ffffffffffffffff81111561075257600080fd5b61075e888289016106a7565b935050606061076f8882890161067d565b925050608061078088828901610692565b9150509295509295909350565b60006020828403121561079f57600080fd5b60006107ad848285016106d1565b91505092915050565b6107bf816109ee565b82525050565b6107ce81610a63565b82525050565b6107dd81610a75565b82525050565b6107ec81610a87565b82525050565b6107fb81610a99565b82525050565b600061080c826109d2565b61081681856109dd565b9350610826818560208601610aba565b61082f81610c55565b840191505092915050565b61084381610a59565b82525050565b600060208201905061085e600083018461083a565b92915050565b60006101008201905061087a600083018b61083a565b610887602083018a6107c5565b81810360408301526108998189610801565b905081810360608301526108ad8188610801565b90506108bc60808301876107d4565b6108c960a08301866107e3565b6108d660c08301856107b6565b6108e360e08301846107f2565b9998505050505050505050565b600061010082019050610906600083018b61083a565b610913602083018a6107c5565b81810360408301526109258189610801565b905081810360608301526109398188610801565b905061094860808301876107d4565b61095560a08301866107e3565b61096260c08301856107b6565b61096f60e083018461083a565b9998505050505050505050565b6000610986610997565b90506109928282610b1f565b919050565b6000604051905090565b600067ffffffffffffffff8211156109bc576109bb610c26565b5b6109c582610c55565b9050602081019050919050565b600081519050919050565b600082825260208201905092915050565b60006109f982610a39565b9050919050565b6000819050610a0e82610c66565b919050565b6000819050610a2182610c7a565b919050565b6000819050610a3482610c8e565b919050565b600073ffffffffffffffffffffffffffffffffffffffff82169050919050565b6000819050919050565b6000610a6e82610a00565b9050919050565b6000610a8082610a13565b9050919050565b6000610a9282610a26565b9050919050565b6000610aa482610a59565b9050919050565b82818337600083830152505050565b60005b83811015610ad8578082015181840152602081019050610abd565b83811115610ae7576000848401525b50505050565b60006002820490506001821680610b0557607f821691505b60208210811415610b1957610b18610bf7565b5b50919050565b610b2882610c55565b810181811067ffffffffffffffff82111715610b4757610b46610c26565b5b80604052505050565b6000610b5b82610a59565b91507fffffffffffffffffffffffffffffffffffffffffffffffffffffffffffffffff821415610b8e57610b8d610b99565b5b600182019050919050565b7f4e487b7100000000000000000000000000000000000000000000000000000000600052601160045260246000fd5b7f4e487b7100000000000000000000000000000000000000000000000000000000600052602160045260246000fd5b7f4e487b7100000000000000000000000000000000000000000000000000000000600052602260045260246000fd5b7f4e487b7100000000000000000000000000000000000000000000000000000000600052604160045260246000fd5b6000601f19601f8301169050919050565b60038110610c7757610c76610bc8565b5b50565b60078110610c8b57610c8a610bc8565b5b50565b60068110610c9f57610c9e610bc8565b5b50565b60038110610caf57600080fd5b50565b60078110610cbf57600080fd5b50565b60068110610ccf57600080fd5b50565b610cdb81610a59565b8114610ce657600080fd5b5056fea2646970667358221220b061d27ea025ef6acca995e4660604efc952dbc4397e703e39eefb079a994f6f64736f6c63430008040033",
  "linkReferences": {},
  "deployedLinkReferences": {}
}